:100000000C94DE000C94FB000C94FB000C94FB00A1
:100010000C94FB000C94FB000C94FB000C94050D5D
:100020000C94FB000C94FB000C94FB000C94FB0064
:100030000C94FB000C94FB000C9499020C94FB00B4
:100040000C94FB000C94FB000C94FB000C94FB0044
:100050000C94FB000C94FB000C94FB000C94FB0034
:100060000C94FB000C94FB0008000000BE92244995
:10007000123EABAAAA2ABECDCCCC4C3E00000080DA
:10008000BEABAAAAAA3E00000000BF000000803F4D
:100090000000000000084178D3BB4387D1133D190D
:1000A0000E3CC3BD4282AD2B3E68EC8276BED98F3A
:1000B000E1A93E4C80EFFFBE01C4FF7F3F0000007E
:1000C000000000407A10F35A00A0724E1809001088
:1000D000A5D4E80000E87648170000E40B540200BD
:1000E00000CA9A3B000000E1F505000080969800E8
:1000F000000040420F000000A08601000000102711
:1001000000000000E80300000000640000000000A0
:100110000A00000000000100000000002C76D888D2
:10012000DC674F0823DFC1DFAE59E1B1B796E5E3E5
:10013000E453C63AE651997696E8E6C28426EB89FE
:100140008C9B62ED407C6FFCEFBC9C9F40F2BAA59B
:100150006FA5F490055A2AF75C936B6CF9676DC133
:100160001BFCE0E40D47FEF520E6B500D0ED902E37
:100170000300943577050080841E080000204E0A95
:10018000000000C80C333333330F986E12831141D3
:10019000EF8D2114893BE65516CFFEE6DB18D1849E
:1001A0004B381BF77C1D901DA4BBE42420328472C5
:1001B0005E228100C9F124ECA1E53D2711241FBE78
:1001C000CFEFD8E0DEBFCDBF12E0A0E0B1E0ECE0C1
:1001D000FBE202C005900D92A23AB107D9F713E0F5
:1001E000A2EAB2E001C01D92AB3BB107E1F70E9469
:1001F0002B040C9484150C940000EF920F931F9322
:10020000CF93DF93162FC42FD22FAA2797FDA09547
:10021000BA2F880F991FAA1FBB1F880F991FAA1FEB
:10022000BB1F9C01AD01220F331F441F551F220F1E
:10023000331F441F551F60E074E284EF90E00E947A
:100240000A10CA01B90161507040804090400E947C
:100250002C0E0E94270F862F113019F492E09093F4
:10026000C0007093C5008093C40088E08093C100F3
:10027000EE2029F0E1ECF0E080818068808302309C
:1002800019F488E08093C200DD2331F4E2ECF0E061
:1002900080818062808307C0D13029F4E2ECF0E0F5
:1002A000808180638083C63031F4E2ECF0E08081AD
:1002B0008260808310C0C73031F4E2ECF0E08081CE
:1002C000846080830FC0C83031F4E2ECF0E08081BC
:1002D0008660808307C0C93029F4E2ECF0E08081B9
:1002E0008E608083DF91CF911F910F91EF900895E1
:1002F000CF93DF931092C602309107033323A9F006
:10030000E0ECF0E0C6ECD0E087E093E0208125FF50
:10031000FDCF38832091C6022F5F2093C602DC01F7
:10032000A20FB11D3C91332389F7DF91CF9108953E
:10033000109284031092830381E090E09093D202A4
:100340008093D1021092FC021092FB021092DE0206
:100350001092DD021092C5021092C40280E090E07B
:10036000DC018093B4029093B502A093B602B093DF
:10037000B7021092AF021092AE028093BC0290932B
:10038000BD02A093BE02B093BF028093B0029093CF
:10039000B102A093B202B093B3028093AB039093E7
:1003A000AC03A093AD03B093AE038093B8029093D7
:1003B000B902A093BA02B093BB021092A7021092A6
:1003C000A6021092900310928F031092A90210922D
:1003D000A8021092B3031092B4031092B5031092C6
:1003E000B6038093DF029093E002A093E102B09302
:1003F000E2021092A5021092A40210924E031092F3
:100400004D030895EF920F9381E090E09093D20214
:100410008093D102109284031092830380E090E0D5
:10042000DC018093B0029093B102A093B202B0932A
:10043000B302209822983C9A3D9A239A449A459870
:100440002B98389839983A983B98EEE6F0E08081FE
:100450008260808382E884BD82E085BD83EF87BDB2
:100460000E948F0C80E895E260E048E022E002E024
:10047000EE24E3940E94FD008CE00E94530C0E9445
:10048000150C0E94190C80E091E00E94320C86E06D
:1004900061E00E94070C80E191E00E94320C8FEF36
:1004A00093E2A4EF81509040A040E1F700C000002B
:1004B0000E94150C789480E49FE1A0E0B0E0809366
:1004C000630390936403A0936503B093660380E095
:1004D00093E5A7E0B0E08093670390936803A0934F
:1004E0006903B0936A030F91EF90089580E48093BD
:1004F0007C0083E880937A000895ACE7B0E090E454
:100500009C93EAE7F0E093E890839C918770982BA6
:100510009C93808180648083808184FFFDCFEAE7A3
:10052000F0E08081806180838091780090917900F3
:1005300008951F920F920FB60F9211242F933F939D
:100540004F935F936F937F938F939F93AF93BF93DB
:10055000EF93FF938091D1029091D2028130910567
:10056000F1F580918303909184030097C1F580E0B9
:100570000E947D02BC0180E090E00E942C0E6093FE
:100580007F0370938003809381039093820320E024
:1005900030E040EA50E40E94610F20E030E040E8A3
:1005A0005AE30E94610F262F372FF82FE92F462F8D
:1005B000572F682F792F4093DF025093E00260930A
:1005C000E1027093E202822F932FAF2FBE2F809310
:1005D000AB039093AC03A093AD03B093AE038091B3
:1005E0008303909184038130910509F023C18091A8
:1005F000D1029091D202009709F01CC1809163034F
:1006000090916403A0916503B09166030197A109DD
:10061000B1098093630390936403A0936503B0933F
:10062000660340916703509168036091690370917C
:100630006A034150504060407040409367035093BC
:1006400068036093690370936A030097A105B1057D
:1006500009F07FC098B180E1892788B980E00E94C5
:100660007D02BC0180E090E00E942C0E60937F032D
:1006700070938003809381039093820320E030E0A5
:1006800040EA50E40E94610F20E030E040E85AE385
:100690000E94610FDC01CB018093DF029093E002A6
:1006A000A093E102B093E20281E00E947D02BC01CE
:1006B00080E090E00E942C0E6093B7037093B80323
:1006C0008093B9039093BA0320E030E040EA50E40D
:1006D0000E94610F20E030E040E85AE30E94610F81
:1006E000DC01CB018093A7039093A803A093A903F7
:1006F000B093AA0382E00E947D029093B00380939E
:10070000AF03BC0180E090E00E942C0E2DE83BE09E
:1007100047EC5EE30E94610FDC01CB0180934F0345
:1007200090935003A0935103B093520383E00E942F
:100730007D02909354038093530380E49FE1A0E0F3
:10074000B0E08093630390936403A0936503B09338
:1007500066038091670390916803A0916903B0914B
:100760006A030097A105B10509F064C06091B00269
:100770007091B1028091B2029091B30220E030E01A
:10078000A9010E948F0D882381F48091DF0290914E
:10079000E002A091E102B091E2028093B002909356
:1007A000B102A093B202B093B3028DB79EB70E9779
:1007B0000FB6F8949EBF0FBE8DBFEDB7FEB7319652
:1007C00087E093E0ADB7BEB712969C938E931197D6
:1007D00085E191E09383828387EC92E09583848323
:1007E00083ED92E09783868389E593E09187808704
:1007F00081EF92E0938782878091B1039091B20359
:10080000958784870E947D108DB79EB70E960FB690
:10081000F8949EBF0FBE8DBF0E94780180E093E5E3
:10082000A7E0B0E08093670390936803A093690307
:10083000B0936A03FF91EF91BF91AF919F918F9118
:100840007F916F915F914F913F912F910F900FBECC
:100850000F901F901895CF93DF9300D0CDB7DEB7E0
:100860000E9402020E9476020F2EF7EC2F2EF2E079
:100870003F2EF02DB6C20F2EFEE3AF2EF1E0BF2EBD
:10088000F02D0EE511E00E94190CC5010E94320CFA
:10089000C090DF02D090E002E090E102F090E2022E
:1008A000C701B6012AE939E949E15FE30E94DE0E9A
:1008B00018169CF5C701B6012DEC3CEC4CE45FE347
:1008C0000E948F0D88234CF580E061E00E94070CA8
:1008D0008DE491E00E94320C459A10924E031092E2
:1008E0004D03C090DF02D090E002E090E102F09072
:1008F000E202C701B6012AE939E949E15FE30E9452
:10090000DE0E181654F4C701B6012DEC3CEC4CE495
:100910005FE30E948F0D8823BCF2459880E061E080
:100920000E94070CC8010E94320C1092FC02109227
:10093000FB02C090DF02D090E002E090E102F09074
:10094000E202C701B6012DEC3CEC4CE45FE30E94EF
:100950008F0D88230CF497CF81E090E090934E03A5
:1009600080934D038091FB029091FC02009731F53A
:100970008091DD029091DE02009701F58091C40222
:100980009091C5020097D1F4C701B6012DEC3CEC63
:100990004CE45FE30E94DE0E181684F40E94150CEE
:1009A00081E090E09093FC028093FB0281E060E0A4
:1009B0000E94070C8FE691E00E94320C189BC1C088
:1009C0008091FB029091FC028130910509F0B9C041
:1009D0008FEF90E7A2E081509040A040E1F700C087
:1009E0000000189909C08FEF90E7A2E08150904075
:1009F000A040E1F700C000008091AE029091AF02EC
:100A000063E070E00E94F70F282F392F8093AE0229
:100A10009093AF0221303105B9F12230310509F44C
:100A200062C02115310509F08CC080E061E00E94B0
:100A3000070C8DE791E00E94320C84E061E00E9497
:100A4000070C8AE891E00E94320C8091AE029091EE
:100A5000AF0201969093AF028093AE028DEC9CECB6
:100A6000ACE4BFE38093B4029093B502A093B602C6
:100A7000B093B7028FEF91EEA4E081509040A04078
:100A8000E1F700C000005DC080E061E00E94070C5B
:100A900083E991E00E94320C81E061E00E94070C42
:100AA0008CE991E00E94320C8091AE029091AF02ED
:100AB00001969093AF028093AE0280E090E0A0E8B0
:100AC000BFE38093B4029093B502A093B602B093B3
:100AD000B7028FEF91EEA4E081509040A040E1F783
:100AE00000C000002EC080E061E00E94070C8EE58F
:100AF00091E00E94320C85E061E00E94070C8AEAD6
:100B000091E00E94320C8091AE029091AF0201966A
:100B10009093AF028093AE0286E696E6A6E6BFE328
:100B20008093B4029093B502A093B602B093B7023B
:100B30008FEF91EEA4E081509040A040E1F700C01B
:100B400000001A9B3AC06091B4027091B502809186
:100B5000B6029091B70220E030E0A9010E948F0D0B
:100B6000882359F18091FB029091FC02813091051C
:100B700021F58FEF90E7A2E081509040A040E1F78F
:100B800000C000001A9909C08FEF90E7A2E08150E1
:100B90009040A040E1F700C000000E94150C1092A8
:100BA000FC021092FB0281E090E09093DE028093C1
:100BB000DD021092C5021092C4028091FB02909156
:100BC000FC02009721F58091DD029091DE028130D8
:100BD0009105E9F48091C4029091C5020097B9F49F
:100BE0006091B4027091B5028091B6029091B70203
:100BF00020E030E0A9010E948F0D882341F082E0BF
:100C000060E00E94070C80EB91E00E94320C189B80
:100C100053C08091DD029091DE028130910509F090
:100C20004BC08FEF90E7A2E081509040A040E1F7E9
:100C300000C00000189909C08FEF90E7A2E0815032
:100C40009040A040E1F700C000008091A402909184
:100C5000A5028C599F4F9093A5028093A40282E035
:100C600061E00E94070C6091A4027091A5028827A0
:100C700077FD8095982F0E942E0E0F2EFBE6EF2E0B
:100C8000F3E0FF2EF02D44E020E087010E945B108E
:100C9000C7010E94320C88E061E00E94070C8CEBD7
:100CA00091E00E94320C8FEF91EEA4E081509040D1
:100CB000A040E1F700C000001A9B93C08091DD02C4
:100CC0009091DE028130910509F08BC08091A402E1
:100CD0009091A502009709F484C08FEF90E7A2E0FD
:100CE00081509040A040E1F700C000001A9909C06F
:100CF0008FEF90E7A2E081509040A040E1F700C064
:100D000000000E94150C1092FC021092FB0210923F
:100D1000DE021092DD022B9A0E94190C80EC91E009
:100D20000E94320C8FEF99E6A8E181509040A040DC
:100D3000E1F700C0000086E061E00E94070C00EDD2
:100D400011E0C8010E94320C8FEF99E6A8E18150B2
:100D50009040A040E1F700C0000087E061E00E9401
:100D6000070CC8010E94320C8FEF99E6A8E1815070
:100D70009040A040E1F700C0000088E061E00E94E0
:100D8000070CC8010E94320C8FEF99E6A8E1815050
:100D90009040A040E1F700C000000E94150C81E0E7
:100DA00090E090938403809383031092D202109278
:100DB000D1021092FC021092FB021092DE021092FD
:100DC000DD021092C5021092C4020E949B0CDC014D
:100DD000CB018093B3039093B403A093B503B09376
:100DE000B6038091D1029091D2028130910509F031
:100DF0007BC48091830390918403009709F074C4AD
:100E0000C090DF02D090E002E090E102F090E202B8
:100E1000C701B6012DEC3CEC4CE45FE30E948F0D62
:100E200088230CF428CD98CD6091B0027091B10266
:100E30008091B2029091B30220E030E0A9010E94BB
:100E40008F0D882359F4E7E0F3E0A2EDB1E08DE1E6
:100E50000D9001928150E1F70E9478010E94190CD7
:100E60006091DF027091E0028091E1029091E202D4
:100E700043E022E081010E945B10C1010E94320C1C
:100E800085E060E00E94070C8FEE91E00E94320C3A
:100E90006091A7037091A8038091A9039091AA0380
:100EA00020E030E04AE754E40E94610FDC01CB010E
:100EB0008093B8029093B902A093BA02B093BB0298
:100EC0008AE060E00E94070C6091B8027091B9025C
:100ED0008091BA029091BB0243E020E003ED12E062
:100EE0000E945B10C8010E94320C8EE060E00E94FC
:100EF000070C81EF91E00E94320C0E949B0CDC01F8
:100F0000CB01E3EBF3E020813181821B930B9093C3
:100F1000900380938F030E949B0CDC01CB014091D6
:100F2000B3035091B4036091B5037091B6036C01A3
:100F30007D01C41AD50AE60AF70AC0929503D09239
:100F40009603E0929703F092980300918F0310911B
:100F500090038091A8029091A902B801681B790BB7
:100F60007093A7026093A60280E090E00E942C0E8E
:100F700020E03AEB4BE55AE40E94930D2091B80231
:100F80003091B9024091BA025091BB020E94610FA8
:100F90002091BC023091BD024091BE025091BF022F
:100FA0000E942B0DB62EA72E982E892E862F9A2DB5
:100FB000A92DB82D8093BC029093BD02A093BE02D0
:100FC000B093BF021093A9020093A802C701B60113
:100FD00020E63AEE40E050E00E940A103093B2035F
:100FE0002093B1038B2D9A2DA92DB82DBC01CD01D5
:100FF00044E020E083010E945B1080E061E00E94F9
:10100000070CC3010E94320C85E061E00E94070CCE
:101010008CEB91E00E94320C8AE061E00E94070CA8
:1010200060914F037091500380915103909152034E
:1010300043E020E082010E945B10C2010E94320C5A
:101040008EE061E00E94070C8FED0E941D0C8FE086
:1010500061E00E94070C84EF91E00E94320C209125
:1010600053033091540340E050E060E070E48CE9B9
:1010700090E00E942C10CA01B90160517742804073
:1010800090400E942E0E0E94E70E6B017C0160933F
:10109000910370939203809393039093940323E7B7
:1010A0003FE745E759E30E94610F2BEE3FEF43E92D
:1010B0005AE30E942B0D4B015C01C701B60129E5E3
:1010C00037E44CEB53E30E94610F9B01AC01C70175
:1010D000B6010E94610F9B01AC01C701B6010E94DD
:1010E000610F9B01AC01C501B4010E942B0D9B0156
:1010F000AC0160E070E080E89FE30E94930D23E381
:1011000033E948E853E40E942A0D262F372FF82FA1
:10111000E92F462F572F682F792F4093A303509321
:10112000A4036093A5037093A603822F932FAF2F80
:10113000BE2FBC01CD0120E030E04CE852E40E941B
:10114000DE0E18169CF510928403109283034498C7
:10115000459A0E94150C82E060E00E94070C86EF21
:1011600091E00E94320C84E061E00E94070C82E072
:1011700092E00E94320CA7E0B3E0EAE0F2E081E204
:1011800001900D928150E1F70E9478018FE392E483
:10119000AFE081509040A040E1F700C000000E9405
:1011A000150C0E94980145980E942B046091DF0263
:1011B0007091E0028091E1029091E2022091B402EC
:1011C0003091B5024091B6025091B7020E948F0D46
:1011D00088230CF095C210928403109283030E941E
:1011E000150C8FEF93EDA0E381509040A040E1F704
:1011F00000C000000F2EFDEFAF2EF2E0BF2EF02D4D
:101200000F2EFDE36F2EF2E07F2EF02D0F2EF1EF6B
:101210008F2EF2E09F2EF02DA7E0B3E0A983BA83D2
:101220000F2EFFE82F2EF2E03F2EF02D6091DF020F
:101230007091E0028091E1029091E2022AE939E99D
:1012400049E95EE30E948F0D882374F54498459A1E
:101250002B98A7E0B3E0EAE0F2E081E201900D9282
:101260008150E1F70E94780186E060E00E94070C5F
:101270008BE292E00E94320C82E061E00E94070C57
:1012800080E392E00E94320C8FEF93E2A4EF815052
:101290009040A040E1F700C000000E94150C0E94A1
:1012A000980145980E942B040E94150C449A2B9893
:1012B00081E090E09093AF028093AE026091A4022F
:1012C0007091A502882777FD8095982F0E942E0E99
:1012D0009B01AC016091BC027091BD028091BE0285
:1012E0009091BF020E94930D20E030E048EC52E460
:1012F0000E94610F0E94FB0DDC01CB019093A302C1
:101300008093A202C090B002D090B102E090B202ED
:10131000F090B3026091AB037091AC038091AD0388
:101320009091AE03A70196010E942A0DA701960194
:101330000E94930D20E030E04AE754E40E94610FE0
:10134000262F372FF82FE92F462F572F682F792F69
:10135000409355035093560360935703709358037B
:10136000822F932FAF2FBE2FBC01CD0143E020E091
:1013700085010E945B1081E060E00E94070CC301C0
:101380000E94320C80E061E00E94070C6091BC0278
:101390007091BD028091BE029091BF0244E020E0B6
:1013A00084010E945B10C4010E94320C85E061E060
:1013B0000E94070C8CEB91E00E94320C8BE061E004
:1013C0000E94070C6091A2027091A302882777FD0A
:1013D0008095982F0E942E0E0F2EFBE6EF2EF3E045
:1013E000FF2EF02D42E020E087010E945B10C70134
:1013F0000E94320C8EE061E00E94070C8CE492E0C7
:101400000E94320CE981FA81AEE4B2E08DE10D90E8
:1014100001928150E1F70E947801ADB7BEB71C97E9
:101420000FB6F894BEBF0FBEADBFEDB7FEB7319695
:1014300087E093E012969C938E9311978BE692E04F
:1014400093838283958284828091B1039091B203C9
:1014500097838683B186A08689E593E09387828708
:101460000E947D10ADB7BEB71C960FB6F894BEBFF4
:101470000FBEADBF0E947801EE24FF246894E1F80E
:101480000F2EFCEBCF2EF1E0DF2EF02D0F2EFCE423
:101490004F2EF2E05F2EF02D18C1189BEBC08FEF9E
:1014A00091EEA4E081509040A040E1F700C0000020
:1014B000189909C08FEF91EEA4E081509040A040B0
:1014C000E1F700C000008091AE029091AF02B70139
:1014D0000E94F70F282F392F8093AE029093AF020E
:1014E0002115310529F02130310509F0C3C054C060
:1014F0000E94150C81E060E00E94070CC3010E946D
:10150000320C80E061E00E94070C6091BC02709197
:10151000BD028091BE029091BF0244E020E00BE644
:1015200013E00E945B10C8010E94320C85E061E06C
:101530000E94070CC6010E94320C89E061E00E9403
:10154000070C6091A2027091A302882777FD809515
:10155000982F0E942E0E44E020E00E945B10C801EC
:101560000E94320C8EE061E00E94070CC2010E94D2
:10157000320C8091AE029091AF0201969093AF022F
:101580008093AE028FEF95EAAEE081509040A0408C
:10159000E1F700C000006EC00E94150C0E94190CFB
:1015A00060915503709156038091570390915803B1
:1015B00044E020E085010E945B10C5010E94320CCE
:1015C00085E060E00E94070CC1010E94320C81E0BE
:1015D00061E00E94070C6091B1037091B20388270B
:1015E00077FD8095982F0E942E0E43E020E00BE6B9
:1015F00013E00E945B10C8010E94320C85E061E09C
:101600000E94070C84E992E00E94320C60914F0323
:1016100070915003809151039091520343E020E078
:101620000E945B108BE061E00E94070CC8010E94E1
:10163000320C8EE061E00E94070C8FED0E941D0CC1
:101640008FE061E00E94070C84EF91E00E94320C71
:101650008091AE029091AF0201969093AF02809379
:10166000AE028FEF95EAAEE081509040A040E1F7E6
:1016700000C000001A9B29C06091B4027091B502AD
:101680008091B6029091B70220E030E0A9010E945B
:101690008F0D8823D1F08FEF91EEA4E08150904020
:1016A000A040E1F700C000001A9909C08FEF91EE49
:1016B000A4E081509040A040E1F700C000000E94EB
:1016C000150C0E9498010E942B0480918303909135
:1016D0008403009709F0AACD8091D1029091D202A3
:1016E000009709F4DACEA2CD0F2EF1EF6F2EF2E0C3
:1016F0007F2EF02D0F2EF9E54F2EF3E05F2EF02D0B
:1017000080918303909184038130910509F069CB26
:101710008091D1029091D202009709F485CB61CBE0
:101720002C9A00002C980895CF93662311F0299AE3
:1017300001C029985C98509A579A529A539A5B988C
:101740005A985F98589888230CF45B9AC82F86FDA6
:101750005A9AC5FD5F9AC4FD589A0E94900B5B98F7
:101760005A985F985898C3FD5B9AC2FD5A9AC1FD7A
:101770005F9AC0FD589A0E94900B589A5F9A5A9AA5
:101780005B9ACF910895882311F0299A01C0299876
:101790005C9A50985798529853982C9A0000489900
:1017A00002C080E001C080E14F9980624A99806464
:1017B0004B9980682C9800002C9A00004899816011
:1017C0004F9982604A9984604B9988602C9808955B
:1017D00080E00E94C30B8823DCF300C000C080E0DF
:1017E0000E94C30B0895CF93C82F0E94E80B8C2F43
:1017F00060E00E94940BCF910895CF93C82F0E9470
:10180000E80B8C2F61E00E94940BCF910895662322
:1018100021F480580E94F30B089580540E94F30B2A
:1018200008950E94E80B90E0089581E00E94F30B78
:10183000089582E00E94F30B0895CF93C82F0E9471
:10184000E80BCA3049F4803410F480E401C080E031
:1018500080580E94F30B04C08C2F61E00E94940B0F
:10186000CF910895CF93DF93EC018881882331F0E5
:1018700021960E941D0C89918823D9F7DF91CF9181
:101880000895CF93DF93EC01FC018491882341F00C
:1018900021960E941D0CFE01219684918823C9F790
:1018A000DF91CF910895CF93C82F219A549A249A0B
:1018B000509A579A529A539A8FE99FE00197F1F7FD
:1018C00000C000005F9A589A0E94900B81EE94E04D
:1018D0000197F1F700C000000E94900B95E19A95E6
:1018E000F1F700000E94900B85E18A95F1F7000066
:1018F00058980E94900B95E19A95F1F7000088E2C4
:101900000E94F30B88E00E94F30B0E94150C86E006
:101910000E94F30B8C2F0E94F30BCF91089582E06D
:101920008093B00094E09093B100809370008AEFB0
:101930008093B30008950F931F938FB7F89400918D
:10194000C0021091C1022091C2023091C3028FBF28
:10195000602F712F822F932F1F910F910895E4E62E
:10196000F0E080818F7B8083E0E7F0E0808182601F
:1019700080830895E0E7F0E080818D7F8083E4E656
:10198000F0E080818064808308958FB7F89410928E
:10199000C0021092C1021092C2021092C3028FBF05
:1019A0000895AB01BC012FB7F8948091C0029091CB
:1019B000C102A091C202B091C302840F951FA61F5D
:1019C000B71F8093C0029093C102A093C202B0934C
:1019D000C3022FBF0895AB01BC012FB7F8948091CB
:1019E000C0029091C102A091C202B091C302841BB7
:1019F000950BA60BB70B8093C0029093C102A093E6
:101A0000C202B093C3022FBF08951F920F920FB668
:101A10000F9211248F939F93AF93BF938091C00235
:101A20009091C102A091C202B091C3020196A11D82
:101A3000B11D8093C0029093C102A093C202B093E3
:101A4000C302BF91AF919F918F910F900FBE0F90E6
:101A50001F9018955058BB27AA270ED075C166D184
:101A600030F06BD120F031F49F3F11F41EF45BC1D4
:101A70000EF4E095E7FB51C1E92F77D180F3BA1757
:101A8000620773078407950718F071F49EF58FC1FC
:101A90000EF4E0950B2EBA2FA02D0B01B901900189
:101AA0000C01CA01A0011124FF27591B99F0593FCD
:101AB00050F4503E68F11A16F040A22F232F342F15
:101AC0004427585FF3CF469537952795A795F04063
:101AD0005395C9F77EF41F16BA0B620B730B840B78
:101AE000BAF09150A1F0FF0FBB1F661F771F881F30
:101AF000C2F70EC0BA0F621F731F841F48F4879588
:101B000077956795B795F7959E3F08F0B3CF939576
:101B1000880F08F09927EE0F979587950895D9D0EB
:101B200008F481E008950CD00FC107D140F0FED039
:101B300030F021F45F3F19F0F0C0511139C1F3C00A
:101B400014D198F39923C9F35523B1F3951B550B81
:101B5000BB27AA2762177307840738F09F5F5F4F80
:101B6000220F331F441FAA1FA9F333D00E2E3AF0C1
:101B7000E0E830D091505040E695001CCAF729D0DB
:101B8000FE2F27D0660F771F881FBB1F261737072A
:101B90004807AB07B0E809F0BB0B802DBF01FF275A
:101BA00093585F4F2AF09E3F510568F0B6C000C1C0
:101BB0005F3FECF3983EDCF3869577956795B79594
:101BC000F7959F5FC9F7880F911D9695879597F9AF
:101BD0000895E1E0660F771F881FBB1F6217730728
:101BE0008407BA0720F0621B730B840BBA0BEE1F3D
:101BF00088F7E095089504D06894B111D9C008958C
:101C0000BCD088F09F5790F0B92F9927B751A0F01A
:101C1000D1F0660F771F881F991F1AF0BA95C9F780
:101C200012C0B13081F0C3D0B1E00895C0C0672FB9
:101C3000782F8827B85F39F0B93FCCF38695779530
:101C40006795B395D9F73EF4909580957095619519
:101C50007F4F8F4F9F4F0895E89409C097FB3EF444
:101C600090958095709561957F4F8F4F9F4F9923E9
:101C7000A9F0F92F96E9BB279395F6958795779567
:101C80006795B795F111F8CFFAF4BB0F11F460FF27
:101C90001BC06F5F7F4F8F4F9F4F16C0882311F07F
:101CA00096E911C0772321F09EE8872F762F05C093
:101CB000662371F096E8862F70E060E02AF09A952E
:101CC000660F771F881FDAF7880F9695879597F923
:101CD0000895990F0008550FAA0BE0E8FEEF1616BD
:101CE0001706E807F907C0F012161306E407F50710
:101CF00098F0621B730B840B950B39F40A2661F084
:101D0000232B242B252B21F408950A2609F4A14026
:101D1000A6958FEF811D811D089597F99F6780E833
:101D200070E060E008959FEF80EC089500240A942D
:101D30001616170618060906089500240A941216A6
:101D40001306140605060895092E0394000C11F4D9
:101D5000882352F0BB0F40F4BF2B11F460FF04C086
:101D60006F5F7F4F8F4F9F4F089557FD9058440FDF
:101D7000551F59F05F3F71F04795880F97FB991FEA
:101D800061F09F3F79F087950895121613061406A7
:101D9000551FF2CF4695F1DF08C016161706180634
:101DA000991FF1CF86957105610508940895E8940F
:101DB000BB2766277727CB0197F908958ADF08F4B8
:101DC0008FEF08950EF0E0C0AECF6894A6CFD5DFB8
:101DD000C8F39923D1F3C6F3DF93CF931F930F93E7
:101DE000FF92C92FDD2788232AF02197660F771FDE
:101DF000881FDAF720E030E040E85FEB9FE38839A6
:101E000020F0803E30F021968F7725DEE8E6F0E086
:101E100003C021DEE5E9F0E0C5D08B01BE01EC0195
:101E2000FB2E6F5771097595771F880B990B16DF7D
:101E300028E132E741E35FE350D0AF2D9801AE01D6
:101E4000FF900F911F91CF91DF9116DE7DCF95DF2F
:101E5000A8F19E57A8F1985160F039F1983070F5CB
:101E6000092E9927660F771F881F991F0A94D1F7AB
:101E70001CC0BB27993F4CF4B111B1E0B62B672FC2
:101E8000782F8827985FB1F708C086957795679572
:101E9000B79508F4B1609395C1F7BB0F30F411F416
:101EA00060FF03C06F5F7F4F8F4F3EF4909580952A
:101EB000709561957F4F8F4F9F4F0895689478CFAD
:101EC00076CF0BD041CF32DF28F037DF18F09523E3
:101ED00009F023CF28CF11246BCF47DFA0F3959FC4
:101EE000D1F3950F50E0551F629FF001729FBB2701
:101EF000F00DB11D639FAA27F00DB11DAA1F649FAD
:101F00006627B00DA11D661F829F2227B00DA11D5F
:101F1000621F739FB00DA11D621F839FA00D611DE5
:101F2000221F749F3327A00D611D231F849F600D06
:101F3000211D822F762F6A2F11249F5750408AF03F
:101F4000E1F088234AF0EE0FFF1FBB1F661F771FCB
:101F5000881F91505040A9F79E3F510570F0DDCE8B
:101F600027CF5F3FECF3983EDCF386957795679536
:101F7000B795F795E7959F5FC1F7FE2B880F911DE9
:101F80009695879597F908959F3F31F0915020F4E9
:101F9000879577956795B795880F911D9695879545
:101FA00097F90895DF93CF931F930F93FF92EF92CA
:101FB000DF927B018C01689405C0DA2EEF018DDF82
:101FC000FE01E894A5912591359145915591AEF387
:101FD000EF0152DDFE019701A801DA9479F7DF9055
:101FE000EF90FF900F911F91CF91DF91089597FB94
:101FF000092E07260AD077FD04D049D006D000204C
:102000001AF4709561957F4F0895F6F79095819534
:102010009F4F0895A1E21A2EAA1BBB1BFD010DC004
:10202000AA1FBB1FEE1FFF1FA217B307E407F50788
:1020300020F0A21BB30BE40BF50B661F771F881F64
:10204000991F1A9469F760957095809590959B01FA
:10205000AC01BD01CF01089597FB092E05260ED0D6
:1020600057FD04D0D7DF0AD0001C38F450954095B6
:10207000309521953F4F4F4F5F4F0895F6F790955C
:102080008095709561957F4F8F4F9F4F0895AA1B44
:10209000BB1B51E107C0AA1FBB1FA617B70710F053
:1020A000A61BB70B881F991F5A95A9F78095909585
:1020B000BC01CD010895EF920F931F93CF93322F60
:1020C000C02F47FF02C0A4E101C0A4E0E42FFF2716
:1020D000E7FDF095F7FF03C0F095E195FF4F4C2F1A
:1020E000512F2E2F032FEA2E0E947D128C2F912F1D
:1020F000CF911F910F91EF900895AEE0B0E0E3E82B
:10210000F0E10C945B150D891E8986E08C831A839F
:1021100009838FEF9FE79E838D83AE01475E5F4FFC
:10212000CE0101966F89788D0E949F10EF81F8850E
:10213000E00FF11F10822E96E4E00C947715ADE0CD
:10214000B0E0E5EAF0E10C944D153C017D876C8729
:102150005A01FC0117821682838181FFC8C12E01BA
:102160000894411C511CF3019381EC85FD8593FD7E
:10217000859193FF8191FD87EC87882309F4B3C192
:10218000853241F493FD859193FF8191FD87EC8722
:10219000853229F490E0B3010E94C314E4CFFF24F8
:1021A000EE2410E01032B0F48B3269F08C3228F457
:1021B000803251F0833271F40BC08D3239F08033AC
:1021C00049F411602CC01260146029C0186027C047
:1021D000106125C017FD2EC0282F20532A3098F4F7
:1021E00016FF08C08F2D880FF82EFF0CFF0CF80E7D
:1021F000F20E15C08E2D880FE82EEE0CEE0CE80EB8
:10220000E20E10620CC08E3221F416FD6CC1106417
:1022100006C08C3611F4106802C0883659F4EC857B
:10222000FD8593FD859193FF8191FD87EC87882340
:1022300009F0B8CF982F9554933018F090529330FE
:1022400038F424E030E0A20EB31E3FE339830FC020
:10225000833631F0833781F0833509F05AC022C0CC
:10226000F5018081898322E030E0A20EB31E21E0D7
:10227000C22ED12C420114C092E0292E312C2A0CFE
:102280003B1CF5018080918016FF03C06F2D70E02C
:1022900002C06FEF7FEFC4010E94B8146C015101BE
:1022A0001F7715C082E0282E312C2A0C3B1CF5012B
:1022B0008080918016FF03C06F2D70E002C06FEF29
:1022C0007FEFC4010E94AD146C011068510113FD31
:1022D0001CC006C080E290E0B3010E94C314EA94DF
:1022E0008E2D90E0C816D906A8F30FC0F40117FD93
:1022F000859117FF81914F0190E0B3010E94C314B3
:10230000E110EA940894C108D108C114D10471F70E
:10231000E7C0843611F0893651F5F50117FF07C083
:1023200080819181A281B38124E030E008C0808166
:102330009181AA2797FDA095BA2F22E030E0A20E46
:10234000B31E012F0F76B7FF08C0B095A0959095EA
:1023500081959F4FAF4FBF4F0068BC01CD01A201D7
:102360002AE030E00E94EF14D82ED4183FC0853701
:1023700021F41F7E2AE030E020C0197F8F36A9F0BB
:10238000803720F4883509F0AEC00BC0803721F0CB
:10239000883709F0A8C001C0106114FF09C014609B
:1023A00007C014FF08C0166006C028E030E005C072
:1023B00020E130E002C020E132E0F50117FF07C064
:1023C000608171818281938144E050E006C0608128
:1023D000718180E090E042E050E0A40EB51EA201C1
:1023E0000E94EF14D82ED418012F0F7706FF09C0D2
:1023F0000E7FDF1430F404FF06C002FD04C00F7E20
:1024000002C01D2D01C01F2D802F90E004FF0CC0C5
:10241000FE01ED0DF11D2081203311F4097E09C06C
:1024200002FF06C01E5F05C086789070009709F015
:102430001F5F802E992403FD12C000FF0DC0FD2CEC
:102440001E1550F4FE0CF11A1E2D06C080E290E01D
:10245000B3010E94C3141F5F1E15C0F304C01E15F4
:1024600010F4E11A01C0EE2484FE0FC080E390E076
:10247000B3010E94C31482FE1FC081FE03C088E521
:1024800090E010C088E790E00DC0C401867890709D
:10249000009791F081FC02C080E201C08BE207FD51
:1024A0008DE290E0B3010E94C31406C080E390E087
:1024B000B3010E94C314FA94DF14C0F3DA94F2015A
:1024C000ED0DF11D808190E0B3010E94C314DD2069
:1024D000A9F706C080E290E0B3010E94C314EA9419
:1024E000EE20C1F740CEF3018681978102C08FEFC5
:1024F0009FEF2D96E2E10C946915A9E0B0E0E3E8C6
:10250000F2E10C9451156A01122FF02E2BE32017E3
:1025100018F0B02EB39402C03CE3B32EAE014F5F6F
:102520005F4F27E00B2D0E94D513BC01A981B0E0BD
:10253000CD01897090708130910531F0E1FC06C0C9
:10254000E0FE06C040E205C04DE203C04BE201C020
:1025500040E0A3FF36C0442311F084E001C083E0D3
:10256000811710F4181B01C010E0E4FC0BC0912F80
:10257000F60180E202C0819391509923E1F7C10EE8
:10258000D11C10E0442319F0F60141936F01E2FEE3
:1025900005C08EE4F601808391E404C08EE6F60166
:1025A000808391E69183828383E090E0C80ED91EF8
:1025B000812FF60190E202C0919381508823E1F7C8
:1025C0003AC0A2FF3FC0442311F084E001C083E081
:1025D000811710F4181B01C010E0E4FC0BC0912F10
:1025E000F60180E202C0819391509923E1F7C10E78
:1025F000D11C10E0442319F0F60141936F01E2FE73
:1026000007C089E4F60180838EE4818386E406C0F6
:1026100089E6F60180838EE6818386E6828383E005
:1026200090E0C80ED91E812FF60190E202C091936E
:1026300081508823E1F7C10ED11CF60110828EEF84
:102640009FEFAFC021E030E0442311F420E030E000
:10265000161617061CF4CB01019602C081E090E02B
:10266000280F391FFF2021F08F2D90E0019602C026
:1026700080E090E0820F931F212F30E082179307B4
:102680001CF4512F581B01C050E08E2D90E09C018E
:1026900020713070E4FC0DC0E3FC0BC0852FF60107
:1026A00090E202C0919381508823E1F7C50ED11CBE
:1026B00050E0442319F0F60141936F0121153105D3
:1026C00059F4852FF60190E302C09193815088233D
:1026D000E1F7C50ED11C50E0B60E4A8120E1622E12
:1026E000712C6A227B22A4FF03C0413309F4BA94FF
:1026F0001B142CF48B2D893018F088E001C081E088
:102700009B0177FF02C020E030E0A0E0B0E09EE255
:10271000E92E4B01881A9108CB01821B930B8E0185
:102720000F5F1F4F080F191F8F2D90E0AA24BB24A5
:10273000A81AB90AFFEF2F3F3F0719F4F601E192FB
:102740006F016217730744F0821693062CF4F801A8
:10275000EA0FFB1F818101C080E3215030401196B8
:102760002A153B0524F0F60181936F01E3CF26176C
:10277000370741F4463328F4453321F461147104DA
:1027800009F481E3F6018193852FDF0190E202C015
:102790009D9381508823E1F7E50FF11D108280E0C1
:1027A00090E02996EEE00C946D15283008F027E0B3
:1027B0003327DA01990F311D87FD9160009661057D
:1027C000710539F432602E5F3D9330E32A95E1F7CD
:1027D00008959F3F30F080387105610509F03C5F36
:1027E0003C5F3D93913008F08068911DDF93CF935B
:1027F0001F930F93FF92EF92192F987F9695E92FD1
:1028000096959695E90FFF27E45EFE4F99273327AB
:10281000EE24FF24A701E70105900894079428F40B
:10282000360FE71EF81E491F511D660F771F881FC0
:10283000991F0694A1F70590079428F4E70EF81E57
:10284000491F561FC11D770F881F991F661F0694C9
:10285000A1F70590079428F4F80E491F561FC71FCB
:10286000D11D880F991F661F771F0694A1F7059049
:10287000079420F4490F561FC71FD81F990F661FD2
:10288000771F881F0694A9F784911095177041F05F
:10289000D695C79557954795F794E7941A95C1F73C
:1028A000E2ECF0E068941590159135916591959161
:1028B00005907FE27395E118F10A430B560BC90BA3
:1028C000D009C0F7E10CF11E431F561FC91FD01DD0
:1028D0007EF4703311F48A95E6CFE894015030F01D
:1028E000080F0AF40027021708F4202F2395022F5F
:1028F0007A3328F079E37D932A95E9F710C07D9328
:102900002A9589F6069497956795379517951794A4
:10291000E118F10A430B560BC90BD00998F0239527
:102920007E9173957A3308F070E37C932013B8F7A7
:102930007E9170617D9330F0839571E37D9370E3B8
:102940002A95E1F71124EF90FF900F911F91CF91FD
:10295000DF91992787FD90950895FC0105906150BE
:1029600070400110D8F7809590958E0F9F1F0895A5
:10297000FC016150704001900110D8F7809590954E
:102980008E0F9F1F08950F931F93CF93DF938C019A
:10299000EB018B8181FF1BC082FF0DC02E813F8127
:1029A0008C819D812817390764F4E881F9810193AE
:1029B000F983E88306C0E885F985802F099500979B
:1029C00031F48E819F8101969F838E8302C00FEF29
:1029D0001FEFC801DF91CF911F910F910895FA0168
:1029E000AA27283051F1203181F1E8946F936E7F4E
:1029F0006E5F7F4F8F4F9F4FAF4FB1E03ED0B4E03F
:102A00003CD0670F781F891F9A1FA11D680F791F7F
:102A10008A1F911DA11D6A0F711D811D911DA11D90
:102A200020D009F468943F912AE0269F11243019A0
:102A3000305D3193DEF6CF010895462F4770405D3B
:102A40004193B3E00FD0C9F7F6CF462F4F70405DEA
:102A50004A3318F0495D31FD4052419302D0A9F745
:102A6000EACFB4E0A6959795879577956795BA953F
:102A7000C9F700976105710508959B01AC010A2E05
:102A800006945795479537952795BA95C9F7620FDC
:102A9000731F841F951FA01D08952F923F924F9280
:102AA0005F926F927F928F929F92AF92BF92CF92DE
:102AB000DF92EF92FF920F931F93CF93DF93CDB7E7
:102AC000DEB7CA1BDB0B0FB6F894DEBF0FBECDBF5F
:102AD00009942A88398848885F846E847D848C8430
:102AE0009B84AA84B984C884DF80EE80FD800C8139
:102AF0001B81AA81B981CE0FD11D0FB6F894DEBF1C
:0C2B00000FBECDBFED010895F894FFCF8B
:102B0C0054455354452044452050494C48415300AA
:102B1C00495345500025732056207C202573206D89
:102B2C0041207C202573202743207C202573206D99
:102B3C004168207C202564206D696E0D0A002049B7
:102B4C004E53455249522050494C4841002D2D447A
:102B5C0045534341525245474144412D2D002020BD
:102B6C002020202020202020202020202020004554
:102B7C0053434F4C484552205449504F002020207D
:102B8C0020202020202020202000416C63616C69D3
:102B9C006E61002020202020202020004E692D4D29
:102BAC0068202F204E692D4364005A696E636F00B4
:102BBC00436170616369646164653A006D416800EA
:102BCC004120696E69636961722074657374650074
:102BDC002E002D2D2D2D2D2D544553544520494E71
:102BEC0049434941444F2D2D2D2D2D2D0D0A0056B5
:102BFC00006D4100430054454D50455241545552CF
:102C0C004100454C4556414441002D2D2D2D2D2D77
:102C1C00544553544520494E544552524F4D5049FA
:102C2C00444F2D2D2D2D2D2D0D0A004552524F00A8
:102C3C00496E736972612050696C68610054455328
:102C4C00544520434F4D504C45544F0025002D2DDD
:102C5C002D2D2D2D544553544520434F4D504C454F
:102C6C00544F2D2D2D2D2D2D0D0A002573206D412A
:102C7C0068207C202564206D696E207C20257320C3
:102C8C006D4F686D207C2025732027430D0A006D45
:102C9C004F686D006D696E2E00FFFF0100583934CE
:022CAC003D00E9
:00000001FF
